:100000000C942A000C943F000C943F000C943F0089
:100010000C943F000C943F000C943F000C943F0064
:100020000C943F000C943F000C943F000C943F0054
:100030000C943F000C943F000C943F000C943F0044
:100040000C943F000C943F000C943F000C943F0034
:100050000C943F0011241FBECFE5D4E0DEBFCDBF1E
:1000600010E0A0E6B0E0ECE3F2E002C005900D92F3
:10007000A437B107D9F70E9441000C941C010C94DD
:1000800000002F923F924F925F926F927F928F92D9
:100090009F92AF92BF92CF92DF92EF92FF920F9317
:1000A0001F93DF93CF93CDB7DEB766970FB6F89463
:1000B000DEBF0FBECDBF8FEF8ABB87BB84BB81BBCA
:1000C000AE014F5F5F4F0F2EF0E66F2EF0E07F2EF8
:1000D000F02D0F2EF7EFFF2EF02D0BEF1EEF0F2E52
:1000E000F3E1AF2EBB24F02DAC0EBD1E0F2EFDEFA5
:1000F0008F2EF02D0F2EF0E7DF2EF02DE82CC5010E
:10010000CA2C992EDA01F30184E101900D928150FD
:10011000E1F70F2EFBE02F2E3324F02D2C0E3D1E89
:100120009E012150304066E070E023C0F5BA508057
:1001300058BAA1EFBBE21197F1F700C0000005BB70
:10014000D1015C9058BAA3EDB0E31197F1F700C06C
:10015000000012BB019751F73297E217F30711F035
:10016000CB01E4CF8EEF9FEF280E391E2216330607
:1001700011F0F501F5CF82BA8FE39DE0A3E0815045
:100180009040A040E1F700C000008CEF82BBDE0190
:100190001796BE8BAD8B66E070E00F2EF1E44F2E0C
:1001A000F02D5524689456F837C015BBDBBA18BA41
:1001B000A7EBBBE01197F1F700C00000E5BA4BBA1E
:1001C00058BAA7EBBBE01197F1F700C0000005BBE0
:1001D0001BBAAD89BE893C9038BAA7EBBBE011973A
:1001E000F1F700C00000F5BA308038BAA3E9B1E1F8
:1001F0001197F1F700C000000197B9F632974E173A
:100200005F0711F0CB01D1CF8D899E8902979E8B1C
:100210008D8B2817390719F0EC2DF92DF3CF82BA01
:100220008FE39DE0A3E081509040A040E1F700C043
:0C02300000008CEF82BB66CFF894FFCF7B
:10023C003F000600DB00CF00E600ED00FD000700EC
:04024C00FF00E700C8
:00000001FF
